:020000040007F3
:1080000058540020698407007184070073840700B6
:10801000758407007784070079840700000000005A
:108020000000000000000000000000005584070070
:108030007D840700000000007F8407008184070022
:10804000199807008384070083840700838407004E
:1080500083840700838407008384070083840700E8
:1080600083840700838407008384070083840700D8
:1080700083840700838407008384070083840700C8
:1080800083840700719807008384070083840700B6
:108090009598070083840700999807008384070058
:1080A0008384070083840700838407008384070098
:1080B00083840700838407000000000000000000A4
:1080C0008384070083840700838407008384070078
:1080D0008384070083840700838407000000000076
:1080E0000000000000000000000000000000000090
:1080F0000000000000000000000000000000000080
:10810000000000000000000000000000000000006F
:10811000000000000000000000000000000000005F
:10812000000000000000000000000000000000004F
:10813000000000000000000000000000000000003F
:10814000000000000000000000000000000000002F
:10815000000000000000000000000000000000001F
:10816000000000000000000000000000000000000F
:1081700000000000000000000000000000000000FF
:1081800000000000000000000000000000000000EF
:1081900000000000000000000000000000000000DF
:1081A00000000000000000000000000000000000CF
:1081B00000000000000000000000000000000000BF
:1081C00000000000000000000000000000000000AF
:1081D000000000000000000000000000000000009F
:1081E000000000000000000000000000000000008F
:1081F000000000000000000000000000000000007F
:10820000DFF80CD000F082F900480047A1AC07006D
:1082100058540020056885F308884068FF2464B23C
:10822000EFF30585002D07D1EFF31481022291436E
:1082300081F31488A64600472546064621273FBA03
:10824000F0B40024002500260027F0B4F92040B245
:108250000047000030B450E8012F93B2C489234492
:108260008489A34228BF1B1B0489A34202BFBFF31A
:108270002F8F002007E0C3EA020340E80134002CFE
:10828000E9D14FF001000A6030BC704750E8012F7F
:10829000C2EA024240E801210029F7D1704730B418
:1082A00050E8022F1FFAA2F3C488A34202BFBFF313
:1082B0002F8F00200DE0C48923448489A34228BF66
:1082C0001B1BC2EA034340E80234002CE8D14FF004
:1082D00001000A6030BC704750E8022FC2EA224217
:1082E00040E802210029F7D17047034653E8022FE6
:1082F000D988B2EB324F4FF0000017BF92B241EA7B
:10830000014142EA014104E05A68B2EB324F08BF32
:10831000012043E80212002AE8D1704730B4044635
:1083200054E8000F0D4644E80053002BF8D11560C7
:1083300030BC704730B4044654E8000F40EA0105F1
:1083400044E80053002BF7D1156030BC704730B4BF
:10835000044654E8000F00EA010544E80053002BEE
:10836000F7D1156030BC704730B4044654E8000FB4
:1083700080EA010544E80053002BF7D1156030BCBA
:10838000704730B4044654E8000F00EB010544E8A0
:108390000053002BF7D1156030BC704730B4044651
:1083A00054E8000FA0EB010544E80053002BF7D17F
:1083B000156030BC7047000030B4044654E8000F2C
:1083C0000D4644E80053002BF8D1156030BC7047CF
:1083D00030B4044654E8000F40EA010544E8005375
:1083E000002BF7D1156030BC704730B4044654E818
:1083F000000F00EA010544E80053002BF7D1156097
:1084000030BC704730B4044654E8000F80EA0105E0
:1084100044E80053002BF7D1156030BC704730B4EE
:10842000044654E8000F00EB010544E80053002B1C
:10843000F7D1156030BC704730B4044654E8000FE3
:10844000A0EB010544E80053002BF7D1156030BCC8
:10845000704700001EF0040F0CBFEFF30880EFF32D
:10846000098003F0ADBF000006488047064800477A
:10847000FEE7FEE7FEE7FEE7FEE7FEE7FEE7FEE7D4
:10848000FEE7FEE7B998070001820700202A04DB17
:10849000203A00FA02F1002070479140C2F1200317
:1084A00020FA03F319439040704740EA01039B0709
:1084B00003D009E008C9121F08C0042AFAD203E059
:1084C00011F8013B00F8013B521EF9D27047D2B2BD
:1084D00001E000F8012B491EFBD270470022F6E7AD
:1084E00010B513460A4604461946FFF7F0FF20462A
:1084F00010BD30B504460020034600E05B1C9342EB
:1085000003D2E05CCD5C401BF8D030BD064C074D7B
:1085100006E0E06840F0010394E807009847103453
:10852000AC42F6D3FFF770FE90DD0700B0DD070028
:108530002DE9F0438BB01446129D15F9046B00969B
:108540001F46804689462B460246214602A800F077
:10855000A8FC02A9129A084600F093FC129B02AAFA
:108560004146404600F07DFC129B02AA214620466F
:1085700000F077FC2B464A4639463846009600F014
:1085800090FC129A394602A800F07BFC02A92B4607
:1085900042460846009600F084FC02A92B4622467B
:1085A0000846009600F07DFC2B46424621462046B8
:1085B000009600F076FC129B22464946484600F0A1
:1085C00050FC2B4602AA41462046009600F069FC6A
:1085D000129B22463946384600F043FC2B464A4659
:1085E00039463846009600F05CFC324602A9204627
:1085F00000F01FFE0BB0BDE8F083F0B5154689B062
:108600001C4607460E461A462946684600F039FCC5
:1086100023466A463946384600F023FC23462A465C
:108620006946684600F01DFC23466A4631463046DE
:1086300000F017FC09B0F0BD8B1802448B4200D14A
:10864000704713F8010D02F8010DF7E72DE9F04727
:108650001F46B3F90230894613F11F0148BF03F1E9
:108660003E014D11D91D48BF03F10E01CC109442BB
:108670004FFA85F828BF14464146064600F066FAD0
:1086800022464946FFF7D8FFB7F90220E40094429A
:108690001FD9A41A06EB85010022C4F120058E42E1
:1086A0000ED3243742463146384600F05AFA0128A4
:1086B0000FD043463A463046BDE8F04700F010BFC1
:1086C00051F8040D20FA04F313430B6000FA05F28D
:1086D000E5E7BDE8F0872DE9F04793F9006092B037
:1086E00004468946104631461546984600F060FA21
:1086F000002840F091804246494602A800F0C1FBA4
:10870000434602AA21460AA800F0ABFB02A908468C
:10871000424600F0B6FB43462A464946484600F02A
:10872000A0FB08F1040742462946284600F0A9FBB1
:108730003B462A4621462046009600F0E5FA3B4695
:108740002A4629462846009600F0DEFA3B462A468D
:1087500021462846009600F0A4FB43462A462146BF
:10876000204600F07EFB3B462246214628460096E6
:1087700000F0CAFA3B4600962A462146204600F001
:10878000C3FA2368DB074AD533463A4621462046DA
:1087900000F0AEF931468246204600F03DFD06F17C
:1087A0008043013B54F8230040EACA7044F8230098
:1087B00042462146284600F064FB3B460AAA294669
:1087C0002846009600F06DFB3B460AAA294628463B
:1087D000009600F066FB0AA908463B462A4600962A
:1087E00000F05FFB43460AAA2146204600F039FB11
:1087F00002AA3B4610462146009600F052FB324644
:108800002946204600F015FD4946284600F011FD96
:1088100002A9484600F00DFD12B0BDE8F0873146D0
:10882000204600F0F9FCC3E700487047E0DC070091
:108830002DE9F04FEDB01F46769E0490B6F9023058
:1088400096F9005013F11F0948BF03F13E0949F39F
:10885000471909F1FF3824AB002443F828406CABDA
:1088600003EB88034CA88A469346394696F90120C3
:1088700043F8804C43F8604CFFF7DEFE96F9012088
:1088800054A8B918FFF7D8FE29464CA800F090F973
:108890000746002840F01F8154A800F089F9039092
:1088A000002840F01A8106F124034A464CA91846D4
:1088B000029300F056F9012840F011814A4654A96C
:1088C000029800F04EF90128069040F008811CAC97
:1088D0000CAF4B46029A54A9204600F02EFA039B97
:1088E00047F828305A46514638463346FFF7AEFE21
:1088F00039463846029BCDF80090224600F0A0FA97
:108900000DF5B878029BCDF8009022464CA914A82A
:1089100000F096FA2A464046049900F08AFCAB0023
:1089200008EB030A0793049BA900591806F1440BAE
:10893000504600F07EFC594634A800F07AFCAB00AB
:108940000BEB03013CA800F074FC331D414634AA34
:1089500020460095059300F0A4FA534642463CA9F0
:1089600034A80096FFF7E4FD2B46321D2146204631
:1089700000F0E3F92246514640463346FFF73DFEFC
:10898000039BCDE9083B049B49463846CDE90A38AC
:1089900000F022FC4946804614A800F01DFC8045EA
:1089A000B8BF80461FFA88F808F1FF3B0FFA8BFB2F
:1089B0005946384600F0C4FD5946071C14A818BF94
:1089C000012700F0BDFD002814BF022300231F4330
:1089D0000DF1200A2A465AF8277024A8394600F0DB
:1089E00028FC0DF1B00BAB00F918584600F021FC43
:1089F0002946204600F0AAF8A8F10208069B236049
:108A00000FFA88F80DF1900AB8F1000F1FDA2B4623
:108A1000059A2146204600F090F9334622465946F1
:108A20005046FFF7EAFD4A465146029800F099F891
:108A3000012804D04B46029A504600F051FD2A46C8
:108A40004CA9504600F0A2F86DB0BDE8F08F334657
:108A50002246D6F8A47059465046B84741460CA85D
:108A600000F06EFD4146071C14A818BF012700F056
:108A700067FD002814BF022300231F4308AB53F8EF
:108A800027701FB32A46394634A800F0D2FB079B53
:108A90003CA8F91800F0CDFB334622463CA934A887
:108AA000FFF7ABFD059B009534AA514644A800F0A2
:108AB000F8F95B4652463CA934A80096FFF738FD0A
:108AC000334644AA2146204600F0CBF908F1FF388E
:108AD0000FFA88F898E72046B6E73846B4E70398D7
:108AE000B2E70000000000000000000000000000ED
:108AF000C3F10803DB0070B50133002403A500BFF8
:108B00005B1920C940CAAD1920C0184720C940CA06
:108B1000754120C020C940CA754120C020C940CA43
:108B2000754120C020C940CA754120C020C940CA33
:108B3000754120C020C940CA754120C020C940CA23
:108B4000754120C06441204670BD00BF002310B5B0
:108B50001C465AB2914200DC10BD40F8234001335C
:108B6000F7E710B5013A52B2130601D5002010BD47
:108B700050F8224051F822309C4205D802F1FF32D1
:108B8000F2D24FF0FF30F2E70120F0E730B5013AC2
:108B900052B20023140603D5B3FA83F0400930BD66
:108BA00050F8224051F822506C402343013AF1E73B
:108BB00010B500231A465CB2A14203DCB2FA82F07F
:108BC000400910BD50F8234001332243F3E72DE95B
:108BD000F04FA5B01D4614ABCDE9023181462946C0
:108BE0001046174600F0F8FAC0EB851004B2002CCE
:108BF0002646B8BF04F11F06634246F3471603F04A
:108C00001F0304F01F0804A858BFC3F10008314631
:108C1000FFF79CFFB8F1000F30B22DDD04AB00224E
:108C200003EB8000C8F1200C13469D4219D82FB2E7
:108C30007B00019304AB03EB870705F1FF3824ABFE
:108C4000012603EB8808002C54DA24AB03EB8606DC
:108C50002A4656F8881C484600F0EBFA25B0BDE8D5
:108C6000F08F57F8236006FA08F10A4340F8042B06
:108C7000013326FA0CF2D8E704AB2A46394603EB57
:108C8000800000F0D6FAD2E70FFA82FE5AF8883C4C
:108C900053F82EB024AB03EB8202013052F8803C33
:108CA0000B44BBEB030334BF012200229B4518BFDA
:108CB00011465CF8882C42F82E30019B42B29A4251
:108CC000E2DB731A5E42294604A85E4100F0A4FA72
:108CD00024AB03EB8503294653F8802C58F8803CDD
:108CE000384643EAC273013C48F8803C24B200F0A5
:108CF00093FAA8E724AB0020C6F1010C014603EB70
:108D0000860A03EB8C0CD8E770B59DF910401E461F
:108D100023460546FFF7ECFE30B922462946304689
:108D2000FFF71FFF012807D0234632462946284671
:108D3000BDE8704000F0D4BB70BDF0B50F46A1B0E7
:108D400006461946384615461C46FFF731FF20B146
:108D50003046FFF7FBFE21B0F0BD2246394668469B
:108D600000F067FA294608A800F063FA10A8214627
:108D7000FFF7ECFE012318A81093FFF7E7FE224649
:108D800008A96846FFF7EDFE28B9224610A930462B
:108D900000F04FFADFE7009BDA0709D42146684666
:108DA00000F03AFA2246294610A800F0A9FCE6E7AE
:108DB000089BDB0707D4214608A800F02DFA2246BD
:108DC000294618A8F1E7002823461CDD08AA6946B1
:108DD000684600F085FB2146684600F01DFA2246F1
:108DE00018A910A8FFF7BDFE002805DA10A9234630
:108DF0002A460846FFF77CFE10A9234618AA084613
:108E000000F06EFBCEE708A96A46084600F068FB52
:108E1000214608A800F000FA224610A918A8FFF77A
:108E2000A0FE002805DA18A923462A460846FFF7BF
:108E30005FFE18A9234610AA084600F051FBBEE7C2
:108E400070B590B005469DF950401E4668462346D1
:108E500000F039F8324669462846FFF7B8FE10B0F0
:108E600070BD30B51C4691B0054693F90030684698
:108E700000F029F8D4F8AC3069462846984711B07C
:108E800030BD30B5144691B0054692F900206846D1
:108E900000F0DBF9D4F8AC3069462846984711B0A9
:108EA00030BD70B59DF910401E462346054600F0C2
:108EB00017FB38B12346324629462846BDE87040A4
:108EC000FFF716BE70BD2DE9F04F08B4F8CA04B420
:108ED00051F8042BA3FB028940F8048B4FF0000AE1
:108EE000E4FB629A4FF0000BE5FB62AB4FF0000C25
:108EF000E6FB62BC4FF0000EE7FB62CE51F8042B9C
:108F00004FF00008E3FB628940F8048BE4FB629AAF
:108F1000E5FB62ABE6FB62BCE7FB62CE51F8042BDB
:108F20004FF00008E3FB628940F8048BE4FB629A8F
:108F3000E5FB62ABE6FB62BCE7FB62CE51F8042BBB
:108F40004FF00008E3FB628940F8048BE4FB629A6F
:108F5000E5FB62ABE6FB62BCE7FB62CE51F8042B9B
:108F60004FF00008E3FB628940F8048BE4FB629A4F
:108F7000E5FB62ABE6FB62BCE7FB62CE40F8049B1C
:108F800040F804AB40F804BB40F804CB40F804EBD5
:108F90000CBC052B00F01E810C68A0F11400A1F19F
:108FA0001401A2F1140252F804EB4FF0000550F83E
:108FB000046BE4FB6E5652F804EB50F8047BE4FBC0
:108FC0006E6752F804EB50F8048BE4FB6E7852F8AD
:108FD00004EB50F8049BE4FB6E8952F804EB50F864
:108FE00004ABE4FB6E9AA0F1140052F8044B51F864
:108FF00004EB4FF0000CE4FB6EC540F804CB51F8D5
:1090000004EBE4FB6E5640F8045B51F804EBE4FB20
:109010006E6740F8046B51F804EBE4FB6E7840F89F
:10902000047B51F804EBE4FB6E8940F8048B51F8A3
:1090300004EBE4FB6E9AA0E80006062B00F0CA8061
:109040000C68A0F11800A1F11801A2F1180252F861
:1090500004EB4FF0000550F8046BE4FB6E5652F839
:1090600004EB50F8047BE4FB6E6752F804EB50F815
:10907000048BE4FB6E7852F804EB50F8049BE4FB9D
:109080006E8952F804EB50F804ABE4FB6E9A52F888
:1090900004EB50F804BBE4FB6EABA0F1180052F8EF
:1090A000044B51F804EB4FF0000CE4FB6EC540F8A4
:1090B00004CB51F804EBE4FB6E5640F8045B51F826
:1090C00004EBE4FB6E6740F8046B51F804EBE4FB3F
:1090D0006E7840F8047B51F804EBE4FB6E8940F8AD
:1090E000048B51F804EBE4FB6E9A40F8049B51F8B2
:1090F00004EBE4FB6EABA0E8000C072B6AD008B4CD
:109100000C68A0F11C00A1F11C01A2F11C0252F894
:1091100004EB4FF0000550F8046BE4FB6E5652F878
:1091200004EB50F8047BE4FB6E6752F804EB50F854
:10913000048BE4FB6E7852F804EB50F8049BE4FBDC
:109140006E8952F804EB50F804ABE4FB6E9A52F8C7
:1091500004EB50F804BBE4FB6EAB52F804EB50F8A0
:1091600004CBE4FB6EBCA0F11C0052F8044B51F898
:1091700004EB4FF00003E4FB6E3540F8043B51F87C
:1091800004EBE4FB6E5640F8045B51F804EBE4FB9F
:109190006E6740F8046B51F804EBE4FB6E7840F81E
:1091A000047B51F804EBE4FB6E8940F8048B51F822
:1091B00004EBE4FB6E9A40F8049B51F804EBE4FBEB
:1091C0006EAB40F804AB51F804EBE4FB6EBCA0E8D6
:1091D000001808BCBDE8F08F013910B549B2041D74
:1091E0000A06CBB204D4013954F82120002AF7D062
:1091F00001335BB273B103F18042013A50F822208F
:10920000002022B9013B00EB431318B210BD5208F5
:109210000130F6E71846F9E700EB810100238842A8
:1092200000D3704751F8042D43EA52030B60D30773
:10923000F5E710B500235CB2A24200DC10BD51F886
:10924000234040F823400133F5E72DE9F04FB1E822
:10925000005E06B4AAFB09124FF00003EBFB692382
:109260004FF00004ECFB69344FF00005EEFB69455C
:109270004FF00006EBFB6A63ECFB6A34491852417D
:1092800076415B41A9FB09784FF0000949F10009DB
:1092900018EB0108A0E88001AAFB0A78574158EBB7
:1092A0000608A0E88001EEFB6A454FF0000A4AF18B
:1092B000000A4FF00001ECFB6B14EEFB6B454FF026
:1092C0000002EEFB6C255FEA5909494164415241B5
:1092D0006D4149F10009EBFB6B3A1AEB010AA0E87A
:1092E0000804ACFB0C6A66415AEB020AA0E8400491
:1092F000AEFB0E6A6E415AEB090AA0E8400406BCB8
:10930000052A00F0E680A0F11400A1F11401B1E8F3
:10931000E043A5FB0E344FF00005E6FB6E454FF031
:109320000006E7FB6E564FF00007E8FB6E674FF054
:109330000008E9FB6E784FF00009DB1864416D41CD
:1093400076417F4158EB080859F1000950F804CBE9
:1093500013EB0C0350F804CB54EB0C0450F804CB83
:1093600055EB0C0550F804CB56EB0C0650F804CB2B
:1093700057EB0C0758F1000859F10009A0F114004F
:10938000EEFB0E89A0E8F803062A00F0A280A0F107
:109390001800A1F11801B1E8E047A5FB0E344FF029
:1093A0000005E6FB6E454FF00006E7FB6E564FF0FA
:1093B0000007E8FB6E674FF00008E9FB6E784FF09E
:1093C0000009EAFB6E894FF0000ADB1864416D4129
:1093D00076417F4158EB080859EB09095AF1000A18
:1093E00050F804CB13EB0C0350F804CB54EB0C04F3
:1093F00050F804CB55EB0C0550F804CB56EB0C069B
:1094000050F804CB57EB0C0750F804CB58EB0C0882
:1094100059F100095AF1000AA0F11800EEFB0E9A6A
:10942000A0E8F807072A54D0A0F11C00A1F11C0104
:10943000B1E8E04FA5FB0E344FF00005E6FB6E45AA
:109440004FF00006E7FB6E564FF00007E8FB6E6733
:109450004FF00008E9FB6E784FF00009EAFB6E89D7
:109460004FF0000AEBFB6E9A4FF0000BDB186441E3
:109470006D4176417F4158EB080859EB09095AEBD9
:109480000A0A5BF1000B50F804CB13EB0C0350F805
:1094900004CB54EB0C0450F804CB55EB0C0550F8FE
:1094A00004CB56EB0C0650F804CB57EB0C0750F8E6
:1094B00004CB58EB0C0850F804CB59EB0C095AF1CB
:1094C000000A5BF1000BA0F11C00EEFB0EABA0E864
:1094D000F80FBDE8F08F0000000000000000000061
:1094E000C3F10803DB0070B50133002403A500BFFE
:1094F0005B1920C940CAAD1B20C0184720C940CA0B
:10950000B54120C020C940CAB54120C020C940CAC9
:10951000B54120C020C940CAB54120C020C940CAB9
:10952000B54120C020C940CAB54120C020C940CAA9
:10953000B54120C06441B4FA84F0400970BD00BF59
:109540004A11012350F8220001F01F0103FA01F132
:1095500008407047F0B5082289B00C460646FFF770
:1095600068FECB6A03930B6B04934B6B05938B6B79
:109570000693CB6B0793002708236A466946684623
:10958000CDE901770097FFF7B3FA082305466A464D
:1095900031463046FFF7ACFA236B0393636B0493B9
:1095A000A36B0593E36B0544CDE906376A460823B0
:1095B00069466846FFF79CFA082305446A46314627
:1095C0003046FFF795FA236A0093636A0193A36A12
:1095D0000293A36B0693E36B0793054408236A4643
:1095E00031463046CDE904770397FFF781FA636A85
:1095F0000093A36AA26B0193E36A02930492636BE4
:10960000E26B0393CDE90523236A079305440823FE
:109610006A4631463046FFF76BFAE36A0093236BE4
:109620000193636B0293236A0693A36A079305442D
:1096300008236A4631463046CDE904770397FFF7A1
:109640004FFF236B0093636B0193A36B0293E36B58
:109650000393636A0693E36A07932D1A08236A4605
:1096600031463046CDE90477FFF73AFF636B00934C
:10967000A36B0193E36B0293236A0393636A0493DE
:10968000A36ACDE90537236B07932D1A08236A4691
:1096900031463046FFF724FFA36B0093E36BCDE91F
:1096A0000137636A0393A36A0493E36ACDE905373C
:1096B000636B07932D1A08236A4631463046FFF73D
:1096C0000FFF2D1A0D4C0FD435B908223146204614
:1096D000FFF747FA01280FD00823224631463046CB
:1096E000FFF7FEFE2D1AEFE70823224631463046EB
:1096F000FFF7FEF92D18F7D409B0F0BDE4DC070040
:1097000070B5036813F001060546144605D01346EC
:109710000A460146FFF7ECF9064621462846FFF7C0
:109720007BFD46B104F18042013A55F8223043F006
:10973000004345F8223070BD2DE9F04115468AB04E
:10974000044688461C22002103A8FEF7C9FE2E1DF0
:1097500095F9007003232A46414620460293FFF7FD
:1097600090FB334602AA214620460097FFF799FB5B
:109770002B46424621462046FFF773FB00973346AF
:1097800005F1840221462046FFF7BEFA0AB0BDE883
:10979000F08100F01F02012191404009800000F19A
:1097A000E020C0F88012704700F01F0201219140B4
:1097B0004009800000F1E020C0F80011704700F07F
:1097C0001F02012191404009800000F1E020C0F813
:1097D000001270474907090E002806DA00F00F0052
:1097E00000F1E02080F8141D704700F1E02080F8BF
:1097F00000147047BFF34F8F05480168054A01F414
:10980000E06111430160BFF34F8F00BFFDE700002F
:109810000CED00E00400FA052DE9F0414FF48077EB
:10982000384601F0CAFA0124104EA50748B138465F
:1098300001F0CAFA0120C5F808037470002000F096
:1098400047FD4FF48277384601F0B7FA00280BD075
:10985000384601F0B9FA0220C5F80803B470BDE833
:10986000F041012000F034BDBDE8F0810832002055
:1098700007480021C0F84011C0F84411C0F8481151
:10988000C0F84C11C0F80011C0F8041103F050BF2B
:109890000010014003F09ABE10B50021054A0846A9
:1098A00000F014FA002803D0BDE8104000F00CBA14
:1098B00010BD0000799F0700F0B5AE480023021DDF
:1098C00001780125101D4FF0805406290BD1167820
:1098D000360708D10678C6F30316032E06D0042EE9
:1098E00004D0052E02D0062907D00EE0B4F8246378
:1098F000A14FC6F304263E6002E01678360704D175
:109900000678C6F30316032E02D0062904D00FE012
:109910009B4F9A4E7E670EE01678360708D1067880
:10992000C6F30316032E06D0042E04D0052E02D053
:10993000062907D00EE0D4F84462924FC6F34236AF
:109940003E6002E01678360704D10678C6F30316A7
:10995000032E02D0062906D011E08B4E376827F07F
:10996000807737600EE01678360708D10678C6F3A0
:109970000316032E06D0042E04D0052E02D006298D
:109980000AD011E04FF08046C6F80C31C6F810310D
:109990007C4E361F336002E01678360704D1067815
:1099A000C6F30316032E02D0062905D00CE0754F2E
:1099B000032664373E600AE01678360704D106783D
:1099C000C6F30316032E02D006290DD014E06F4F04
:1099D00005263E606D4E783635606C4E0836336035
:1099E0003F263F1D3E6002E01678360704D1067818
:1099F000C6F30316052E02D0062957D062E0644E46
:109A00003668644F3E60624E361D36683F1D3E60CC
:109A10005F4E083636683F1D3E605D4E0C36366838
:109A20003F1D3E605A4E103636683F1D3E60584E10
:109A3000143636683F1D3E60554E18363668554F11
:109A400020373E60524E1C3636683F1D3E60504EF9
:109A5000203636683F1D3E604D4E243636683F1D29
:109A60003E604B4E283636683F1D3E60484E2C36D1
:109A700036683F1D3E60464E30363668454F4037AB
:109A80003E60434E343636683F1D3E60404E3836A9
:109A900036683F1D3E603E4E3C3636683F1D3E6098
:109AA0003B4E403636683F1D3E6002E01678360772
:109AB00008D10678C6F30316032E06D0042E04D070
:109AC000052E02D0062907D019E0D4F85812324AE0
:109AD00001F04F01116002E0117809070FD1007801
:109AE000C0F30310032803D0042801D0052806D1B1
:109AF0002A480168C90702D06FF0010101602248BD
:109B00007438016841F470010160BFF34F8FBFF3F7
:109B10006F8F4FF01021D1F80002002803DBD1F83D
:109B20000402002822DA1E4A15601E480468002C30
:109B3000FCD01524C1F800420568002DFCD0C1F806
:109B4000044201680029FCD0136001680029FCD0A0
:109B5000BFF34F8F0C48F0380168134A01F4E061FD
:109B600011430160BFF34F8F00BFFDE710490F485D
:109B70000860F0BDE00F00F0403501400DF0ADBAD7
:109B800000C007403C050040FCED00E010560040DE
:109B90000404001020C50040E40E00400004004012
:109BA00004E5014000E401400400FA050090D00300
:109BB000B028002002E008C8121F08C1002AFAD10C
:109BC00070477047002001E001C1121F002AFBD13D
:109BD000704700000121202803DA81400548014038
:109BE00003E0402802DA2038814009B101207047A3
:109BF00000207047FC06FFBD082806D228B10128C6
:109C000003D0042801D0012070470020704780074E
:109C100001D00020704701207047C3688B4206D8EE
:109C200011440069491E814201D80120704700207B
:109C30007047000000B5224B8DB00DF1240C0FCB06
:109C40008CE80F001621ADF8201002218DF80010CD
:109C5000012206208DF801208DF8020003208DF8E6
:109C600003008DF8041059208DF80500FE208DF8B2
:109C7000060008A90DF109007DDF68B9BDF82000D4
:109C8000411C8DF80710092109308DF80810C1B268
:109C900000231A46684672DF00280FD174DF0121C5
:109CA00009A873DF002809D14FF0A0404FF400311C
:109CB000C0F80C15122002F042FA00200DB000BDD1
:109CC0004CDA0700FFF796FDFFF794FD2DE9F84FFA
:109CD000254C8146924660880E46814241D8002735
:109CE0004FF6FF788DF80070684600F007F922788B
:109CF0006078A188884201DA401C00E00020C0B2F0
:109D0000904204D19DF8000000F01CF927E065782E
:109D10006078884201DA401C00E0002060709DF805
:109D2000000000F00FF9454519D0A068B9F1000F07
:109D300040F835A00DD066B16188E068324605FB79
:109D400001004946FEF7B1FBA06800EBC500868024
:109D500002E000EBC50087800020BDE8F88F0420FA
:109D6000FBE70920F9E700007C28002010B50E4C25
:109D700003E0401C00E000202070207861788142E0
:109D800010D022786188E068A36802FB010003EB31
:109D9000C20153F83220898890472078A1888842F0
:109DA000E9DAE6E710BD00007C28002030B5CB00E2
:109DB00008339DB293074FF0000401D0072030BD57
:109DC000044B9A602A44DA605C701C705880998059
:109DD000002030BD7C280020084B9B7823B12AB19D
:109DE00020B10068037C1BB1082070470720704732
:109DF0000023037441744261184670471C320020EE
:109E000070B503F07BF9104800240B2104704470F6
:109E10000E4D817014206C602C706C70FFF7B9FCD3
:109E200007211420FFF7D6FC1420FFF7BDFC0848DB
:109E3000046007211120FFF7CDFC0548001F0068D2
:109E4000A860002070BD00001C3200208C2800207B
:109E5000081501402DE9FC47DFF8789099F80230A9
:109E600073B368B3052902D20720BDE8FC874369B4
:109E700033B3437C012B25D00027044600258846B8
:109E800016468DF80050684600F038F801A803F037
:109E9000ABFCC8B1012101700F4944600968C0E9F9
:109EA0000218C0E904769DF8040089F801009DF8C5
:109EB000000000F047F81420FFF781FC2846D4E7A3
:109EC0000820D2E70F46D8E704259DF8000000F0EF
:109ED00039F8F3E71C32002004150140064989785F
:109EE00039B130B1416921B100210174022103F07F
:109EF000FBBB0820704700001C32002030B5EFF398
:109F0000108172B60D4A9468012324B103700029B0
:109F100000D162B630BD93604FF0E023D3F880519A
:109F2000074C25401560C3F88041D3F88441546044
:109F30005A17C3F8842100220270E8E72833002072
:109F4000FC06FFBD0B498A68002A11D000280FD1FA
:109F5000EFF3108072B60B684FF0E022C2F80031C8
:109F60004B68C2F8043100228A60002800D162B632
:109F7000704700002833002002F0B6B930B505461E
:109F8000154C85B04FF6FF70208001208DF812002F
:109F90004FF65960ADF810002A4604A90120A0DF51
:109FA000002817D10D4B0FCB8DE80F00A91C684678
:109FB00062DF00280ED1284600F018FC002809D1E5
:109FC000284600F0C9FA002804D1A06840F001003A
:109FD000A060002005B030BD682800205CDA0700D2
:109FE0000D4810B502880024A2F57F41FF390CD03E
:109FF000816841F0040181601321104676DF04007E
:10A0000008D1064801F010F803E074DF112002F0D7
:10A0100096F8204610BD000068280020400D03007F
:10A0200010B5112002F083F8122002F080F8112000
:10A0300002F085F8122002F082F8012000F0CEF83C
:10A04000002818D101F040FE38B10B4801F030FE75
:10A050000A48816841F00201816000F0C5FC0028D7
:10A0600009D105482838FFF789FF002803D1BDE84A
:10A070001040FFF7DFBD10BD2C2D00206828002008
:10A08000FEB5514D0446008800212B8804F10806D6
:10A0900023287DD024DC13283BD014DC01285FD09A
:10A0A000102827D011280DD1122002F048F8287A64
:10A0B000400704D4FFF7BEFD08B1FFF705FE4FF6D9
:10A0C000FF702880FEBD14285ED01A2864D01F2897
:10A0D00036D02128F6D10091A08869468FDF2AE08A
:10A0E00050380828EED2DFE800F05D3F57040464E2
:10A0F0002F10E7E74FF0A0414FF48020C1F80C0586
:10A10000112002F01CF8A088DBE7BDE8FE4001F05A
:10A1100017BD2E486A4642F605210068009002A845
:10A1200001901846A5DF08B1FFF7CEFD00231A46BF
:10A13000852128887FDF0028C4D0FFF7C5FDFEBD3C
:10A140003146184675DF05E0A0790028F7D11321C4
:10A15000184676DF0028F2D0BDE8FE40FFF7B4BD18
:10A160000021184666DFF5E7A0790028E7D02146F0
:10A17000174802F0F1F90028E1D003B03146BDE8FC
:10A18000F040134802F04AB900210A46A08800E0D6
:10A1900013E00B4686DFDDE70023A0881A46194648
:10A1A000A9DFD7E703B02146BDE8F040084802F038
:10A1B0001DBAA0881721ADDFCCE700910191A088DE
:10A1C0000022694690DFB6E76828002044DA0700DD
:10A1D000042D0020007800F0010070477FB50024B6
:10A1E000009401940294039418B101F083FB0028B9
:10A1F0002CD1174813DF002828D102F03FF808B10E
:10A20000FFF762FD684601F0E7FF00281ED1012537
:10A2100001948DF804508DF80540029403948DF854
:10A22000064001A94020009A69DF01948DF804508E
:10A230001720ADF806000294039401A92320009A88
:10A2400069DF002802D1684601F0D0FF04B070BD7C
:10A25000008007000249085C012101F077BF00007F
:10A260003CDA07000249085C002101F06FBF0000E2
:10A270003CDA07007CB50024084E25460122305DFB
:10A28000009500231146019501F03FFF641C042C4A
:10A29000F4D3BDE87C4000F003B800003CDA0700CE
:10A2A00010B500242046FFF7D5FF641C042CF9D319
:10A2B00010BD10B543689C18446021B905E013F83F
:10A2C000010B01F8010B521EF9D2012010BD000054
:10A2D00070B5084C050009D010342168002907D05A
:10A2E00008682060496828468847F6E70834F4E79C
:10A2F00070BD0000083200202DE9F05F264841685B
:10A30000F1B3DFF898B00E688146DBF8004087684B
:10A310008078E11B21F07F45ED1CB0B9DFF880802B
:10A320004FF48030C8F84403C8F804031120FFF745
:10A3300030FA1120FFF738FA4FF0010AC8F800A0F0
:10A340002F2000F0B7FE89F802A0B54200D23546B2
:10A35000124BE8193C3320F07F401860DBF8001006
:10A360005A46091B21F07F41001B20F07F40C91C89
:10A3700081420FD9106818602F2000F09BFE00E08A
:10A3800004E0BDE8F05F1120FFF719BABDE8F05F07
:10A3900002F0B4BEBDE8F09F8C28002004150140F7
:10A3A00000100140F0B54FF0FF3622B11268D243E1
:10A3B00000230A4D0DE03246FAE7C45C62400824EF
:10A3C000D70700D037462F4087EA5202641EF7D1E4
:10A3D0005B1C8B42F1D3D043F0BD00002083B8ED6D
:10A3E000F0B5146906468DB020681546271DE0B10A
:10A3F000022920D00A2000906B4609AA304602F0BC
:10A4000083FD00280FD009A901A8009A02F06EFC74
:10A4100001AE96E80F0005AE86E80F002368696874
:10A420003A4605A898470DB0F0BD0DB03046BDE8DE
:10A43000F04002F0CFBC6946304602F061FC0028D3
:10A44000F1D0236869683A46684698470028EAD000
:10A4500002980028F5D1019870600120E3E7536865
:10A460005B7813F0C00303D0402B03D0002070476B
:10A4700000F002B8FFF7B4BF2DE9FF410B46516869
:10A48000064614464878334D00F00F0210F03000B5
:10A4900055F8225006D0102806D0202808D03028A1
:10A4A00056D13EE022694DE061690120087047E025
:10A4B000022B28D1042A26D84FF0010869463046DD
:10A4C000676902F01DFC00281AD009E00B792269A7
:10A4D00013FB00226846A84770B13878401C3870DA
:10A4E000029820B1616838784A799042EED3019899
:10A4F0007060029860BB02E04FF00008F7E740464A
:10A5000004B0BDE8F081D4E904300F79027817FB7C
:10A51000023349798A421BD2521C02701A46616882
:10A5200010E008786169072A087009D1606801792C
:10A530002069FDF7D3FF60682169806802F0FBFBAA
:10A540002269616804B03046AC46BDE8F04160471E
:10A550000020D5E7BCDC070010B58EB004461C21F6
:10A560006846FDF7BBFF142108A8FDF7B7FF9DF86B
:10A570000010002041F0180107908DF80010A1781C
:10A580008DF836100121ADF834109DF81C1004F13F
:10A590000C0321F0FF018DF81C109DF81D1008AA76
:10A5A00021F00F01491C21F0F00110318DF81D1030
:10A5B0009DF81E1021F00601891C41F011018DF853
:10A5C0001E100DA9089107A909911721ADF82C10AB
:10A5D0000C9020886946A2DF0EB010BD1FB50E4852
:10A5E00000F15C01826B684602F080FB0B489DE83D
:10A5F0000E0080E80E00094909480B4AC860094965
:10A600000020086048600949044802F009F9002860
:10A6100000D0012004B010BD30300020542C0020A8
:10A6200055CB070040280020C8280020CCD90700BF
:10A6300005490A6812B10A68521E0A6001690029B8
:10A6400000D0084770470000742800202DE9F0472B
:10A6500099461600054600F104044FF0000110D0A1
:10A66000B9F1000F0DD094F88F0018B194F8900054
:10A67000012854D0207A20B1E068342803D0062085
:10A680003AE0042038E094F85520032A11D0002045
:10A690004FF44057237C08E004EB800CB7F80C80A3
:10A6A000DCF814C0C44504D0401C8342F4DC07200D
:10A6B00022E04A487AB1012A07D0022A01D0032AAF
:10A6C000DFD121780029DCD0C1684AB1022A0CD040
:10A6D000032A0DD109E021780029D2D08168F4E75E
:10A6E0006068884204D2052006E060688842FAD992
:10A6F00095F8A00020B10B20BDE8F04700F06EB93E
:10A70000374F384B4A463146386800F0F9FB30B9CC
:10A71000344895F8A12008384168914202D00A20B7
:10A72000BDE8F087006805F1A201FDF7BEFE2D4BE4
:10A730002C4AD7F80200083BA2F1100100F096FB6A
:10A7400008B10520ECE7274D0020283DE86094F88B
:10A750005510C9B1012924D023480229C0F5FC2095
:10A7600018D003298DD194F85C10002989D094F871
:10A770005610002985D0A26D216E5318EB6042B3AC
:10A7800039B3814223D812E094F8640000289AD0AB
:10A79000A06E0BE094F85C10002994D0216EE96063
:10A7A000EFE794F8560000288DD0A06DE8600D48C2
:10A7B0002022083004F16F010068FDF776FEE8689A
:10A7C00038B1084A0021203A00F08AFF18B104206D
:10A7D000A6E70320A4E70120A2E700003030002014
:10A7E00030DA0700582800200080070010B58EB02E
:10A7F00004461C216846FDF771FE142108A8FDF7E8
:10A800006DFE9DF80010002041F0040107908DF8C6
:10A810000010A1788DF836100221ADF834109DF8A3
:10A820001C1008AA21F0FF018DF81C109DF81D10C6
:10A8300021F00F01491C21F0F00110318DF81D109D
:10A840009DF81E1021F00601891C41F001018DF8D0
:10A850001E100DA9089107A909911421ADF82C101B
:10A860000C902088231D6946A2DF0EB010BD0000A9
:10A870000E4910B50A784C780023A24212D0521C1F
:10A88000D2B20A70022A00D10B70084A0B780C323F
:10A8900052F8232002608868104420F07F408860CE
:10A8A000012010BD0360002010BD00008C28002096
:10A8B0002DE9F84380461F4615460E4600240D48F4
:10A8C00000F056FA38B11120BDE8F88306EB0430E9
:10A8D00001F048FC641CAC42F8D1064800F041FA93
:10A8E0002B46324602214046009700F02BF800200C
:10A8F000EAE70000A02800202DE9F843104D0F469C
:10A9000080461E4691466946286800F0FEF904001C
:10A9100014D01C21FDF7E2FD01202071C4F8149031
:10A92000380BC4F80080C4E902606946286800F06A
:10A930000DFA02F0C7FA0020BDE8F8830420FBE717
:10A94000E8DA07002DE9F04186B004468068DDF8BA
:10A9500030801D4616460F4600280CD0142168464C
:10A96000FDF7BCFDCDE902658DF80070CDF81080D3
:10A97000A1686846884706B0BDE8F08130B5044656
:10A98000006885B00D46806800281CD014216846F8
:10A99000FDF7A4FD0195A0680490207910B101286D
:10A9A0000DD104E001208DF80000206904E00220B0
:10A9B0008DF80000E0680003029060690390206851
:10A9C00081686846884705B030BD00000249002212
:10A9D00008780A7070470000782800200149087044
:10A9E0000B2070477828002010B586B000249DF811
:10A9F0000000019420F00F00401C20F0F000103007
:10AA00008DF80000029403A86DDF002825D19DF881
:10AA10000D00401C8DF80D0003A86CDF00281CD130
:10AA20000F48007A800703D50E48011D806901E0B8
:10AA30000DA1072082B268467CDF00280DD10620D8
:10AA4000ADF804001820ADF80600ADF808404FF44A
:10AA5000C870ADF80A0001A87ADF06B010BD00008A
:10AA6000682800202C2D0020446675546172670010
:10AA700010B501F04BFC08B140DF10BD05490120C5
:10AA80000860012000F0A8F90028FAD102494870B6
:10AA900010BD0000040000400832002010B50A4C30
:10AAA0002068FFF71BFA08B1FFF70EF900224FF4F8
:10AAB00070112068FFF7CEF9002803D0BDE81040E0
:10AAC000FFF702B910BD00006CDA070001494160D0
:10AAD00000207047BCDA070038B504460A48012157
:10AAE0006A46FDF775FC68B90848606001F00EFC25
:10AAF00005491C23FC2208740448FC39001F006827
:10AB000000F0F0F8002038BD30340020ECDA070007
:10AB100002480068002800D001207047A0280020CB
:10AB20000248007A002800D001207047303400200D
:10AB3000800701D00020704701207047026813464B
:10AB400002E08A4204D01268002AFAD10B60016048
:10AB5000704770B5054608680C464A6886682846FE
:10AB6000314602F009F86068286104F10C00686160
:10AB700070780221B1EB901F01D1241D2C6170BDB2
:10AB800006490120086006480168C1F30041002918
:10AB9000FAD1044900208870704700000C00004082
:10ABA00018040040083200202DE9F047394E0027F4
:10ABB00080463D46DFF8E090D6F804A057E003D089
:10ABC0000446D0F81C8035E099F8002002EB4201E1
:10ABD000521CD2B289F8002009EBC10199F8023069
:10ABE000091D9A4201D189F8005048680A78044644
:10ABF000012A12D0022A02D0032A3BD108E002F037
:10AC000043FD00B10127257434E00574C06900E0FC
:10AC100070680028F9D170602CE0207C50BB8868F7
:10AC20006060C868A0600869E0604869A061F07869
:10AC300000B165606268B168184B501A20F07F401F
:10AC4000984202D2A168084406E0881AA16820F060
:10AC50007F40814202D9081A206000E025606560CB
:10AC60000120A56020742046E56102F0EFFCB8F1F8
:10AC70000000A4D199F8001099F801008142A3D1F5
:10AC800017B97168514502D00120BDE8F087002056
:10AC9000FBE700008C2800201C320020FFFF7F0013
:10ACA00010B5FFF7E7FA0220FFF7DCFA084907487A
:10ACB000C1F8000700F079F808B1FEF79BFD4FF4EA
:10ACC0004050806800F05AF8002010BD0C000300CE
:10ACD0004000005010B5FDF708FB08B1002010BD82
:10ACE000112010BD10B531B1B2FBF3F403FB1424F5
:10ACF0001CB1092010BD0E2010BD01600021416073
:10AD000081608281C381084610BD70B50C4605463E
:10AD1000FDF7A0FA002802D021882868084470BDF9
:10AD200010B50A8849888A4203D1FDF7D5FA012077
:10AD300010BD002010BD70B50C460546FDF7AFFAFA
:10AD4000002802D061882868084470BD10B50A88C0
:10AD500049888A4203D1FDF799FA012010BD0020ED
:10AD600010BD08B500216A46FDF7F1FA009808BD4C
:10AD700008B501216A46FDF7DDFA08BD10B50446A5
:10AD800000F0B8FD00280FD14FF0E021401EC1F8BF
:10AD90008001C1F88002204613DF002804D120463C
:10ADA000BDE81040FDF736BA10BD10B500F068FDE3
:10ADB000002801D100F0FCFC10BD00F180400068CB
:10ADC000002800D00120704708B500F18040002124
:10ADD00001600068009008BD0549096840F48030B2
:10ADE00001F00111814201D101207047002070471C
:10ADF0000C0400402DE9F00300F0FF0C002318259F
:10AE000030221C26382420274FF04009BCF10A0FBD
:10AE100025D2DFE80CF024051D0B2015181D0B2092
:10AE200014224A60282211E08A6002E0C1E900464B
:10AE30008C60BDE8F003C0F307200C3100F0D1B8FE
:10AE40004A60602202E042224A6084220A60EBE704
:10AE5000C1E90025E8E7C1E900974A46E4E74B600D
:10AE60000B608B60BDE8F003062070472DE9F041D0
:10AE700086B01C4615460E468046FDF7D5FC0746B3
:10AE800046B33DB334B3306830B3296821B3216889
:10AE900011B3FFF74DFEF8B12868FFF749FED8B1AE
:10AEA0002068FFF745FEB8B101A94046FFF7A2FFB1
:10AEB00000280CD170680199884207D16A6804980B
:10AEC000824203D160680399884207D0092006B006
:10AED000BDE8F0810E20FAE71020F8E708F0FF0047
:10AEE000042801D00620F2E700972368296830681B
:10AEF000FDF79EFC08B10020E9E70B20E7E7000022
:10AF0000F0B506461A48A1B01C004068029004A89B
:10AF100017460D46019008D03DB1206838B1F0B217
:10AF2000052806D0062021B0F0BD0E20FBE710203A
:10AF3000F9E7694600F055F80028F4D160680099F7
:10AF4000884201D00920EEE701A9304600F035F82B
:10AF50000028E8D13A46294601A800F059F800280F
:10AF6000E1D1224601A9304600F004F8DBE70000F9
:10AF7000B4DA0700F8B51446054621B11CB148689B
:10AF800070280DD101E00720F8BD0E68E8B26946CF
:10AF900000F027F80028F7D160680099884201D0B6
:10AFA0000920F8BDC5F3072028B1002230462168EA
:10AFB00002F050F9F8BD0122F8E731B10A6832B168
:10AFC0004968702905D2092070470E20704710206B
:10AFD0007047C0B2052801D006207047104602F025
:10AFE000C1B91422082811D2DFE800F010041004BF
:10AFF00006080C0E0A6003E01C2000E02020086018
:10B00000002070473020FAE74020F8E7062070471C
:10B0100028B121B14368702B03D209207047072063
:10B020007047006802F05EBA00283ED01F49204AEF
:10B03000096800BF00BF00BF00BF00BF00BF00BF66
:10B0400000BF91422FD000BF00BF00BF00BF00BFB4
:10B0500000BF00BF00BF00BF00BF00BF00BF00BFF8
:10B0600000BF00BF00BF00BF00BF00BF00BF00BFE8
:10B0700000BF00BF00BF00BF00BF00BF00BF00BFD8
:10B0800000BF00BF00BF00BF00BF00BF00BF00BFC8
:10B0900000BF00BF00BF00BF00BF00BF00BF00BFB8
:10B0A00000BF00BF00BF0138C3D17047B0280020E7
:10B0B0000024F40000283ED01F49204A096800BF40
:10B0C00000BF00BF00BF00BF00BF00BF00BF914274
:10B0D0002FD000BF00BF00BF00BF00BF00BF00BF38
:10B0E00000BF00BF00BF00BF00BF00BF00BF00BF68
:10B0F00000BF00BF00BF00BF00BF00BF00BF00BF58
:10B1000000BF00BF00BF00BF00BF00BF00BF00BF47
:10B1100000BF00BF00BF00BF00BF00BF00BF00BF37
:10B1200000BF00BF00BF00BF00BF00BF00BF00BF27
:10B1300000BF0138C3D17047B02800200024F400BC
:10B140002DE9F05F244C4FF440594FF48058216BA7
:10B15000666AD9F80830771A03EB010B01EB000A95
:10B160004546AF4200D83D4600220121584600F036
:10B17000EFFA00282ED100232A465146584600F007
:10B1800005FB002826D12A465146584600F086FB8A
:10B1900000281FD1206B28442063002000F0F2FD1E
:10B1A000AB44AA447F1BDBD100223146D9F808000A
:10B1B000FFF7F8F8A16A814203D10121A661C4E931
:10B1C00007010548243000F05DFBBDE8F05F00207A
:10B1D00000F0D8BDBDE8F09F3030002010B50A4C1B
:10B1E000206A01280BD1E06958B14FF44050A169A1
:10B1F00080680022FFF7D6F8E169814201D0002083
:10B2000010BD012010BD00003030002070B5064692
:10B210000C4608681049496B451AA068AC2806D14D
:10B220002A46A6F580410D4800F038FB58B12A4661
:10B2300031460A4800F032FB28B129463046BDE8C5
:10B24000704000F039BB204600F01CFBBDE87040A8
:10B25000034800F097BD0000303000200080070058
:10B26000A5CF07004FF0A040D0F81005000C10F05B
:10B27000010F01D000207047012070472DE9F041F7
:10B28000454C0B780F4616460125D4E90E102A02CC
:10B29000DFF80881072B7DD2DFE803F07C04213C36
:10B2A0001D7C7700B86820B1904204D90420BDE825
:10B2B000F0810320FBE73A480068FEF70FFE3648AE
:10B2C000002688F8036020213830FDF707F926634F
:10B2D000B868A06355E07060206CB06053E0BA6855
:10B2E00013188B4203D97060206CB060E1E72A4BE1
:10B2F00079685C331844FDF7D8F8E06BB968264AE2
:10B300000844E063D7E901014032FFF74BF82064BD
:10B31000E06BE0E7884201D00820C8E798F8030016
:10B32000444608B10120C2E7FFF758F9012824D1AB
:10B330001C4890F8A410B1B100F5637190F8AA20F0
:10B34000A830012A01D005200BE0144A10320CCAA3
:10B35000FFF77CF9012804D1002000F013FD70B143
:10B360000A2005460DE0007838B10320FFF736FBD0
:10B370000546012803D004E00CE0052097E70120F2
:10B38000E070FFF78BFB284691E77060206C32601D
:10B39000B060F8E70225F6E73030002030280020C2
:10B3A000B0DA0700C828002030B40B4B02464FF437
:10B3B00040501C69816803F11800012C08D05C69B9
:10B3C00034B19B690C3003F6FF736FF30B03194420
:10B3D00030BC00F003B80000303000202DE9F0410F
:10B3E00016460C4682680021DFF87C800546012A5B
:10B3F00009D040460127806CA52A0CD0AA2A1BD070
:10B40000AC2A1ED120E0D8F81400012819D120461A
:10B41000FFF796FE14E000B104462946204600F0EE
:10B42000ABFB010006D1284600F02CFA0F4800F0D3
:10B43000A9FC16E0376004E029462046FFF7E6FE47
:10B4400001460846BDE8F08100B104462946204681
:10B4500000F092FB28B9D8F8340029462044FFF7C1
:10B46000D5FE0146E6E7000030300020A5CF0700FA
:10B470002DE9F05F894E91F800C0874F0C461546C4
:10B48000D6E91410FA78B36C4FF0010B4FF4805AE0
:10B490004FF00009BCF1070F7ED2DFE80CF0FA0490
:10B4A00033D7D3FAF500A168B1B37B4B0D05DB6848
:10B4B00002D045189D4237D151452BD8002A6CD077
:10B4C0000144994269D8F16CB164A1683065716436
:10B4D0003063716909B9C6F82090B978491C01F048
:10B4E0000301B970A7F80690A168BA6801F6FF7168
:10B4F0001044090B002200F02BF900287ED0052013
:10B50000BDE8F09F6960B06CA860002A45D0A168D2
:10B51000802902D90420F3E706E0306D726D0844FB
:10B52000801A726C904201D90320E9E75B4A606897
:10B530004832FEF737FFB064306DA268B046104461
:10B5400030656860B06CA860F888A268DFF850A128
:10B5500011183E46802905D2B77861680AEBC713F7
:10B56000184436E0C0F18001B3788FB20AEBC31201
:10B5700010443A466168FCF798FFF088384482B27C
:10B58000F280A068C01BA0606068384460604746D5
:10B59000D8F83000B16801E07BE05BE0B3780844A4
:10B5A0000AEBC311002300F0F1F840B3F86CB86463
:10B5B000786D38656860F86CA860B078401C00F061
:10B5C0000300B070A6F80690A26882B30AEBC01020
:10B5D0006168FCF76AFF2089F18808440204F08062
:10B5E000120C4ED0D8F85410D8F83000D8F84430A7
:10B5F000411A11444446994243D301E03FE017E029
:10B60000B168B37808440AEBC311002300F0BEF818
:10B6100098B1E06CA064606D20656860E06CA86023
:10B62000B078401C00F00300B070A6F8069028E047
:10B63000F188386B08443863BFE7F188206B084411
:10B640002063EDE76960B06CA8601AE0726C081ABC
:10B65000904201D0082053E7C6F84490F3640020DC
:10B66000716500F08FFB08B10A2049E7306DF96879
:10B67000884204D10A48E03800F048F98346FFF7D1
:10B680000DFA58463CE7FFE7AB60306DC5E900A016
:10B69000F7E74FF0020BF4E73028002030300020AD
:10B6A000542A002010B5FFF7DDFD90B90A48006864
:10B6B000C0B2B1280DD00948816D012901D0002008
:10B6C00010BD00218165084600F05CFB08B1FEF763
:10B6D000FBFA012010BD00001C05004030300020A6
:10B6E000F0B54FF010235C694FF440539B68E61AA5
:10B6F000A6F5405682B186421BD3144C1360A4F1C8
:10B70000180300251F6A012F08D01D615D61656067
:10B71000A56020600020F0BD0720F0BD276807F677
:10B72000FF776FF30B07A6EB070C0126604505D9E1
:10B7300009B10420F0BDC3E90465E8E7C3E9045694
:10B740001168024C39440C341160E0E748300020A5
:10B75000054B30B41C68641C1C6013460A46014645
:10B7600030BC024800F002BC74280020B42800203D
:10B7700008B1034900E003490022034800F01DBC62
:10B78000F8DA0700C8DA0700B428002038B5064CFC
:10B7900025686D1C2560009313460A460146034840
:10B7A00000F080FC38BD000074280020B428002080
:10B7B00038B50020009000F0BBFA00F033FB08B170
:10B7C000FEF782FA002000F067FB28480168C1F309
:10B7D00000410029FAD0FEF713FB08B1FEF774FA16
:10B7E000234A00212348FEF7F7FA08B1FEF76CFA66
:10B7F0006846FFF7D9FD012400B10094FFF752FF1E
:10B8000000B100941C4900200860009890B9FFF72F
:10B81000E5FC78B100F032FA00280AD1FFF7DEFC2F
:10B8200030B100F06DFB4FF440508068FFF7A6FA8E
:10B83000002038BD114A10210820FEF7B7FA08B1E0
:10B84000FEF742FA0B4800224FF470110068FEF731
:10B8500001FB0028EDD100F0CFFA0028E9D100F07B
:10B8600025F900BFFEF782FA3EDFFBE7180400402F
:10B8700055BB07006CDA07001C050040682D00204E
:10B88000002070470021016041608160024801632F
:10B890004163016141617047303000201FB5054BA5
:10B8A00001AC92081B6A009384E80700684618DF21
:10B8B00004B010BD70DA07001FB58908002201AB83
:10B8C000009283E80700684618DF04B010BD00004E
:10B8D0001FB59208930502D0092004B010BD044B97
:10B8E0001B6800930392CDE90110684618DFF4E766
:10B8F00070DA07001FB5044B0FCB8DE80F006846C8
:10B9000018DF04B010BD000080DA07002DE9F04711
:10B91000064690F86D000127DFF87C81032801D0EE
:10B92000092013E05D485C4BD8E90212006830330F
:10B93000FFF7E6FA00B10A2757482022303006F117
:10B940006F010068FCF7D5FD18B10C20FFF746F831
:10B950000746534D6A6922B1012A05D00A20BDE885
:10B96000F0874F4C183401E04D4C243496F8553094
:10B970004FF0010A4FF00009ABB34A494FF4405071
:10B98000012B05D0022B38D0032B19D00A2736E023
:10B990000278142A01D9406900E00020D8F8082074
:10B9A000B0FBF1F002F500521378142B01D9526963
:10B9B00000E00022B2FBF1F188421ED005271EE014
:10B9C0000378142B01D9406900E00020D8F8083032
:10B9D000B0FBF1F003F5005393F800C0BCF1140F75
:10B9E00002D95B6901E008E00023B3FBF1F1884272
:10B9F00003D0012A01D1C5F82090012F05D0C4F849
:10BA000008904846C4F804902FE096F8550088B195
:10BA1000012817D0022817D0032818D00420FEF7D9
:10BA2000DDFF074696F85500B0B1022817D003286D
:10BA300017D114E0C4F808A068690128F2D1C5F84C
:10BA40002090EFE7A52003E0AA20A060EAE7AC2061
:10BA5000A060B06D6863E5E77068A86001E0706899
:10BA6000E860A86C6060D8F80C0020600C482021C9
:10BA70003830FCF733FD0A48FF22FC215C30FCF72C
:10BA800026FDC5F8309088F805A0074800F07AF93F
:10BA900000B10A27384662E73028002030DA070074
:10BAA0003030002040420F0015C5070070B501205E
:10BAB000FFF75EFE00281DD10F4CA06B78B1FEF79A
:10BAC0008DFD60B10D4D206A68B9A06958B10B4A6F
:10BAD00000210832E860FFF703FE0120E870002033
:10BAE000FEF77CFF05E0E06A18B9A06908B1606A5A
:10BAF000EDE7002070BD000030300020302800202D
:10BB000030B40C780D4B012C01D0062C08D10C79E7
:10BB1000012C04D0022C02D0072030BC70475C708E
:10BB20005B78012B03D0022B04D00520F5E730BC55
:10BB3000FFF7A4BB30BCFFF79BBC000030280020FF
:10BB400003484179002901D00121017170470000AB
:10BB500030280020BFF34F8F05480168054A01F4E3
:10BB6000E06111430160BFF34F8F00BFFDE70000AC
:10BB70000CED00E00400FA052DE9F041204A0346EF
:10BB800040F6FF76106B516B00F580550C1A04F6E9
:10BB9000FF746FF30B0406EB94066FF30B06C718E4
:10BBA00021B1884202D10020BDE8F081904608B959
:10BBB000C8F84870A64203D904F6FF70060B360396
:10BBC000324639462846FFF783FE0028ECD132463C
:10BBD00039462846FFF762FE0028E5D13544374450
:10BBE000A64201D9002400E0A41BD8F8341000209C
:10BBF000091BC8F8301000F0C5F8002CDAD1D3E7E3
:10BC00003030002038B1054901600549416001210B
:10BC10000172002070470E207047000025BC07000D
:10BC200057BC070030B40246112039B10B78052B00
:10BC300005D2DFE803F00E060C0E0E000E2030BC1D
:10BC400070470220087030BC104600F04DB811203B
:10BC5000F5E70820F3E70246112041B10B78022BEB
:10BC600004D1022A05D0032A00D1082070470E20F3
:10BC70007047002003220A707047000070B50B481F
:10BC80000024D0F85C11491C03D1D0F89C01401C61
:10BC900009D04FF4FE25284600F064FA57220349E4
:10BCA000284600F077FA204670BD000030300020B2
:10BCB00010B528B11C220349FCF7F7FB002010BD8A
:10BCC0000E2010BD9CF1070010B5064C0022182173
:10BCD000201DFEF767FB2168814201D1012010BDC4
:10BCE000002010BD9CF1070070B50C4D0400D5F884
:10BCF0009C0105F5CE7503D0401C03D0082070BD13
:10BD00000E2070BD00221821201DFEF74BFB206085
:10BD100007222146284629DF70BD000000F00700F9
:10BD2000002258210148FEF73DBB000034300020BE
:10BD300070B5FFF71DFD08B1FDF7C6FF4FF4DC75C8
:10BD40002A460E490E48FCF7B0FB0D4C2068401CFB
:10BD500004D0FFF7E5FF216881420ED0294608484C
:10BD6000FCF7BCFB01206060002000F00BF800280D
:10BD700003D0BDE87040FDF7A7BF70BD00F007001D
:10BD80003030002070B50446002201210C48FFF736
:10BD9000DFFC90B9FFF7C4FF0A494FF4DC752A466F
:10BDA0000860A1F5DC70FCF780FB23462A460649B3
:10BDB0000348FFF7EBFC002800D0032070BD000013
:10BDC00000F0070030300020782E002070B50848C1
:10BDD000084D401BC6080020044606E005EBC400E1
:10BDE00040688047002802D1641CB442F6D370BD7D
:10BDF000B8DD0700B0DD070070B50848084D401BEE
:10BE0000C6080020044605E055F8340080470028A5
:10BE100002D1641CB442F7D370BD0000B8DD070046
:10BE2000B0DD070070B50F4C0025207808B18525DE
:10BE300016E00021A16061602161E1604FF0E02027
:10BE4000D0F80001012610F0010F03D107210020D6
:10BE500000F070F800F05AFA08B90348066026703E
:10BE6000284670BD083200201805004008B50020A3
:10BE70008DF800006846FEF741F80648C168491E83
:10BE8000C160C06808B9FEF77BFE9DF80000FEF7B0
:10BE900059F808BD08320020F8B5174D0446A878B7
:10BEA000002648B114B16168012088478DF8006010
:10BEB0006846FEF723F817E08DF800606846FEF745
:10BEC0001DF824B10C4821461030FEF737FEE86813
:10BED00050B94FF48270FEF777FF02204107C1F896
:10BEE0000403064901200860E868401CE8609DF8EA
:10BEF0000000FEF727F8F8BD0832002008000040D7
:10BF000010B500F011F84FF080414FF0FF30C1F84C
:10BF10000803FEF735FEFEF7ABFD0249002008706E
:10BF200010BD0000083200204FF0E0210120C1F8D0
:10BF3000800170474907090E002806DA00F00F0259
:10BF400002F1E02282F8141D03E000F1E02282F801
:10BF5000001400F01F02012191404009800000F10F
:10BF6000E020C0F88012C0F8001170472DE9F041C0
:10BF70001F46154604000E4616D02068B8B1C5B15C
:10BF800060680268501E304215D16A432046FDF7B2
:10BF900044FE80B120683B462A46D0F810C03146A6
:10BFA0002046BDE8F04160470E20BDE8F081082042
:10BFB000FBE70920F9E71020F7E720B119B101608C
:10BFC0000B68114618470E207047000004480121F5
:10BFD0004174007A08B100207047012070470000CA
:10BFE00030340020012801D0032808D10449002260
:10BFF00001284A7400D00020087400F019BF70476F
:10C000003034002070B5244C0246207A012835D007
:10C0100002283FD121480023022A006802D0032AC7
:10C020002CD119E0E360017911B1012926D10BE08F
:10C03000D0E90565711B142900D3142129448161BD
:10C040004569A9420ED019E00169491C01614269A4
:10C05000914213D1237217E0E168491CE16008297D
:10C060000CD9E3602372022A0ED00D21FEF786FC64
:10C070000B480A49091D0068FEF752FE607C28B192
:10C08000BDE8704000F048B90021EFE7BDE870401E
:10C0900000F0CEBE70BD000030340020A428002087
:10C0A000E8DA07002DE9F8431D46089F1646884642
:10C0B00004000DD066B1206860B135B16068406899
:10C0C000B5FBF0F100FB115030B10920BDE8F88359
:10C0D0000E20FBE70820F9E74046FDF798FD90B1F8
:10C0E0003046FDF794FD70B12A4641462046FDF7E3
:10C0F00094FD40B1009720682B463246C768414600
:10C100002046B847E2E71020E0E770B541EA420177
:10C11000DDE904564FF0A04441EA830141EA0521DC
:10C1200004EB800041EA0641C0F8001770BD4FF0F3
:10C13000A04202EB80000321C0F8001770474FF0C7
:10C14000A04201218140C2F80815704701224FF03A
:10C15000A043824011B1C3F808257047C3F80C25ED
:10C1600070470000094902220A60BFF36F8FBFF3D6
:10C170004F8F0A1D106006480268002AFCD000207C
:10C180000860BFF36F8FBFF34F8F704704E5014026
:10C1900000E4014070B50E4C01232360BFF36F8FA4
:10C1A000BFF34F8F00230B4D08E000BF51F8236011
:10C1B00040F823602E68002EFCD05B1C9342F5D320
:10C1C00000202060BFF36F8FBFF34F8F70BD000062
:10C1D00004E5014000E4014020B103490968016021
:10C1E000002070470E20704790DC070060DF70472A
:10C1F00030B593B05FF03805ADF8445011A903A8ED
:10C2000061DF30B1052816D013B0BDE83040FDF72E
:10C210005BBD03AC0949684600F0AAF807E000BF1F
:10C22000D0E9002120469047684600F0B8F802980F
:10C230000028E1D0F4E713B030BD000094DC070023
:10C2400010B50D4C2078A0B10120A07000F0C0FF07
:10C2500011280CD0022000F0D3FF11DF002807D1F5
:10C260002070A07001F06EF9032000F0C9FF0020DB
:10C2700010BD082010BD0000AC28002038B5174CB8
:10C28000207808B1082038BD0125A570002000F0F5
:10C290009FFF112820D0002000F0B2FF1048114964
:10C2A00000680090684610DF0028ECD12570A0706F
:10C2B00060700721162000F03FFF08B1FDF704FD74
:10C2C0000721152000F038FF08B1FDF7FDFC01F053
:10C2D00055F9012000F094FF002038BDAC28002063
:10C2E00028DC0700C59C07000EB50749684600F02A
:10C2F0003FF805E0D0E900108847684600F04FF8A5
:10C3000002980028F6D10EBD44DC070001480078F1
:10C3100070470000AC2800200548817819B10078EA
:10C3200018B1FFF78DBF08207047FFF7A7BF0000C7
:10C33000AC2800201FB5684648DF30B1052814D06E
:10C3400004B0BDE81040FDF7BFBC084901A800F0EB
:10C350000FF806E0D0E900210098904701A800F00E
:10C360001EF803980028E6D0F4E71FBDB0DC0700F4
:10C37000016009684160AFF3008010B5D0E9002189
:10C380005368994201D1002104E0D1E90034A3426D
:10C3900002D01946816010BD08314160F0E7816824
:10C3A00000290BD0026892680A44826041684B6899
:10C3B0009A4203D108314160FFF7DFBF70470000A8
:10C3C0002DE9F04104461348134BC01A0C21B0FB71
:10C3D000F1F6A0694FF0FF3110F8022C02B9216983
:10C3E000002011E000EB400503EB85052F68974224
:10C3F00009D14F1C02D06F688F4204D194E80F001E
:10C40000AD68A84703E0401CB042EBD30120206098
:10C41000BDE8F08104DE0700F8DD070010B586B046
:10C420000446002000900190029003900490059033
:10C430000B7B3748072B67D2DFE803F0660429350A
:10C440001E6649004A89062A01D0032212E042886A
:10C450008280487B04904A7CD1F80E0003A962F3E5
:10C460001F60059001208DF80C006A460020FFF740
:10C4700047FB024601213DE003208DF80C006A468F
:10C4800003A90020FFF73CFB0246042132E04A8961
:10C49000032A01D0032204E0B1F80D10418081800D
:10C4A0000122022126E004208DF80C006A4603A92F
:10C4B0000020FFF725FB0246012801D0032119E0E7
:10C4C000DDE90112204600F08DFD06B010BD48895F
:10C4D000022801D003220CE0487B049006208DF84E
:10C4E0000C006A4603A90020FFF70AFB0246012858
:10C4F00004D00621204600F0D3FDE6E79DE80E00BB
:10C50000204600F09BFDE0E703221946F2E7000019
:10C510006828002010B50D4C2078002814D10C4A52
:10C5200001210C48FDF758FC08B1FDF7CDFB094887
:10C530000022083840F266618068FDF78BFC08B184
:10C54000FDF7C2FB0120207010BD00003028002044
:10C550006DCF070038DA070030B587B000240194AA
:10C560000294039404948A1D8B790831022B35D1EF
:10C5700053888589AB4231D1127A042A2ED0062AFB
:10C580002CD0052A2AD0022201238DF804208DF810
:10C590000A300B89ADF80C304B890C31CDE904140D
:10C5A000ADF81420104DADF80E30CDF818D0018A3A
:10C5B00005AA2888A5DF18B96846FDF70BFE30B13B
:10C5C000ADF8084001A92888A8DF50B106E040F284
:10C5D000FD10ADF8080001A92888A8DF002007B0E9
:10C5E00030BD0120FBE700006828002030B505467B
:10C5F000C888AA8887B0904223D100200590039074
:10C6000004900090029002208DF8000001F11200C9
:10C610000190088A029003AA69460020FFF770FA89
:10C62000094C608800280CD0A088401E0004000C33
:10C63000A08006D1DDE90412284600F0D3FC608812
:10C64000A08007B030BD000068280020F8B50D4676
:10C6500014460646694600F057FA00280ED0009BA3
:10C66000FF2B0AD8581C834207D869780222B2EB04
:10C67000911F02D02979814201D20020F8BD237098
:10C68000611C3046009A00F069FBF8BD114600F0CD
:10C69000D6B8114600F0E3B8F8B50C461546064684
:10C6A000694600F031FA00280CD0009A501C9042E4
:10C6B00007D361780223B3EB911F02D02179814225
:10C6C00001D20020F8BD2946304600F047FB009A11
:10C6D0000021A954F8BD2DE9FF410C468E6817468C
:10C6E0000546694600F00CFB00280ED0A068002823
:10C6F0000BD060783A46C0F30110022831466846F4
:10C7000006D000F0DBF80199696004B0BDE8F08163
:10C7100000F086F8F7E77CB50D461446694600F050
:10C7200090F9002820D02879082806D0042809D0BC
:10C7300002280AD001280CD015E0DDE90001C4E987
:10C7400000010AE00098206006E0009800B2208016
:10C7500002E0009840B22070C117DDE9002350408C
:10C760005940084301D000207CBD01207CBD7CB530
:10C770000D461446694600F0A2F9002820D0287919
:10C78000082807D00021042809D002280AD001284F
:10C790000CD014E0DDE90001C4E9000109E00098D3
:10C7A000206006E0009880B2208002E00098C0B2CD
:10C7B0002070DDE9002350405940084301D000209B
:10C7C0007CBD01207CBD7CB50D461446694600F059
:10C7D00076F9002821D02979082908D00098C217B5
:10C7E00004290BD002290DD001290ED014E0DDE977
:10C7F0000002C4E900020146134609E0C3170146DE
:10C80000206005E001B2218001E041B22170CB1728
:10C8100041405340194301D000207CBD01207CBD24
:10C8200070B50D46064614461146284600F083FAB8
:10C83000224629463046BDE8704000F03FB838B582
:10C840000C460422694600F089FA002806D09DF8BB
:10C850000310009861F31F602060012038BD1CB5F3
:10C860000C460822694600F079FA002824D09DF889
:10C8700001109DF800209DF80230080E42EA0122C6
:10C8800042EA034240EA13409DF803309DF8041049
:10C8900040EA132008439DF8051042EA036240EA8B
:10C8A00001209DF8061040EA01409DF8071040EA7B
:10C8B0000160C4E9002001201CBD00002DE9F04FFB
:10C8C00004469DB000200090064601904FF0FF3ACC
:10C8D0000AA800F051F94FF0010BE94682E012ABD3
:10C8E00005AA06A9204600F0C9F850B10AA8059982
:10C8F00000F053F960B10B98407810F0300F53D02E
:10C9000060E09DF84800002870D11DB0BDE8F08FB0
:10C910000598B04242D30B9D0AAE0B98407800F0C8
:10C920000F00082812D0304600F04EF90B98A842AC
:10C93000F3D156460599B14230D3D4F80880099115
:10C940009DF8181008910E990D6820E00B98067854
:10C95000F0E729680F682FB1DDE908322946204643
:10C96000B84711E011948968DDE9087209789142AD
:10C970000CD1294617A8FEF7ECF885F80CB017AAD9
:10C9800039461198FDF76BFD0028BED0AD6815B192
:10C99000A1684145DDD0A168414523D19DF818101B
:10C9A000204600F017FA1BE00C9840280AD200F04D
:10C9B0001F010BFA01F00C994A0959F82230034380
:10C9C00049F82230E5682DB10AAB9DF818202046C1
:10C9D0000599A8470AAA9DF818102046FDF73FFDC3
:10C9E000002892D0A06800287FF479AFDDE90B041D
:10C9F00045780AA800F0E8F80028F7D115F0300FC4
:10CA000003D10B98007800B1641CC4B100204946E2
:10CA100005E000BF51F82020521C0ED1401CB0EBA5
:10CA2000541FF7D3600959F8201004F01F00C0F11B
:10CA300020022AFA02F0814201D0002065E701209D
:10CA400063E71CB50C46694600F039F8002814D09D
:10CA5000DDE90002C10709D051084FEA30006FEA52
:10CA600000026FEA0100C4E9002004E051084FEA27
:10CA70003000C4E900014FF001001CBDF8B50746C5
:10CA80000020187008700E4610601C461546694656
:10CA9000384600F039F801004FF0010009D0009944
:10CAA00059B1C8082860009800F0070030700120D4
:10CAB000F8BDB96809B10020F8BD2070FBE72DE989
:10CAC000F8430026884681463446354604E0402E29
:10CAD00002D30020BDE8F8836946484600F06AF9B1
:10CAE0000028F7D09DF80070324607F07F00C10F94
:10CAF000FBF7CCFC29430443F61D0D463806E6D46B
:10CB0000C8E900410120E5E7F8B50E460746694649
:10CB100000F050F900280AD09DF80040200616D5F4
:10CB2000072504F07F0403E0202D01D30020F8BD89
:10CB30006946384600F03EF90028F8D09DF800100C
:10CB400001F07F00A8400443ED1D0806ECD401204D
:10CB50003460F8BD5968064A8968914206D1D0E927
:10CB60000110044A401E491CC2E900107047000031
:10CB7000DCD8070040280020C26000230160C0E923
:10CB800001138B781A44026191F903301A4442610F
:10CB90000878002800D00120704770B545680E461F
:10CBA000044660680178B14206D1407800F00F0079
:10CBB000082801D0012070BD204600F005F860680B
:10CBC000A842EED1002070BD30B541680A785AB154
:10CBD00001F10C0343600A7B42B14C780A79C4F33B
:10CBE0000115032D07D00BE0002030BDC26801689D
:10CBF000FFF7C2FFF8E75D78C5F30115032D07D0F5
:10CC00000225B5EB141F09D14C7914FB02F209E09F
:10CC10008D7804690022641B046103E0B5EB941F66
:10CC200000D10422497811F0300F02D18168491CEB
:10CC300081609C78016921441144016193F90320CA
:10CC400011444161012030BD30B54168002487B0F6
:10CC5000497801F00F02082A11D08A091ED0022259
:10CC6000B2EB911F09D10269C1F3011102291460CD
:10CC700001D0032901D14069047007B030BD0069BB
:10CC8000056808E02C7329466846FDF762FF684690
:10CC9000FFF7DAFFAD68002DF4D1EEE7C1F3011123
:10CCA000012912D00229E6D00329E4D04268517844
:10CCB00001F00F0107290BD0916881B11279006949
:10CCC00007B0BDE83040FBF7F0BB41690C70EDE701
:10CCD0000169906807B0BDE8304000F02CB81179C8
:10CCE000006907B0BDE83040FBF7F8BB10B5034B57
:10CCF000002408C080E8160010BD0000B3A20700A1
:10CD000038B50D4604466946FFF7FEFE00280BD0F5
:10CD1000D4E90002D4E90213C5E90002C5E902130F
:10CD20000098814201D2002038BDA860A168081A8D
:10CD3000A060012038BD00B50A4687B001466846AC
:10CD4000FFF71AFF002807D06846FFF77DFF684607
:10CD5000FFF73AFF0028F7D107B000BD7FB51446B2
:10CD60000546A9B9124A2868904208D110E010225D
:10CD700069462846FFF7F2FF002807D0103C102C28
:10CD8000F5D8224669462846FFF7E8FF04B070BD93
:10CD9000A868A04201D20020F8E72B682246284666
:10CDA00098470028F2D0A868001BA8600120EDE792
:10CDB000B3A2070010B504468068002809D0236894
:10CDC000012220469847002803D0A068401EA0609A
:10CDD000012010BD38B5002439B1012912D0022933
:10CDE00012D005291DD0002038BD05460122694614
:10CDF0002846FFF7B3FF90B19DF800000006F5D478
:10CE0000012038BD08220DE005466946FFF77CFE8B
:10CE100028B100212846009AFFF7A0FF38BD204620
:10CE200038BD0422BDE838400021FFF797BF00005D
:10CE30002DE9F041204C0025204E207A012730B901
:10CE40001F48311D0068FDF776FF306038B10220C1
:10CE500020723168087928B101281CD114E065607E
:10CE6000BDE8F081D1E90503C01A142800D31420CD
:10CE7000B7EB900F01D2820800E001220869C9686F
:10CE80001844194429DF03E0D1E90301084428DFED
:10CE900038B111280ED003213068FDF76FFD2572DF
:10CEA000DDE7207C0028DBD1BDE8F0410021022035
:10CEB000FFF7A8B82772D3E730340020A428002059
:10CEC000E8DA070038B5084C0121201D6A46FBF757
:10CED00073FA0090002806D1607C002803D1BDE8D9
:10CEE0003840FFF7A5BF38BD3034002010B51046DC
:10CEF0001A46FBF7DAFA002010BD10B510461A46A4
:10CF0000FBF7D3FA002010BD2DE9F0411E681C4646
:10CF10001546074621B1012918D0052923D119E06A
:10CF200000202060401C2060B0421CD8012229460D
:10CF30003846FFF713FF002806D015F8010B00064E
:10CF400001D52068EEE70120BDE8F0810820024607
:10CF5000186002E004200246186029463846BDE801
:10CF6000F041FFF7FBBE0020EEE700000A4810B5D5
:10CF7000007900280ED0FEF729FFBFF34F8F074836
:10CF80000168074A01F4E06111430160BFF34F8F6C
:10CF900000BFFDE710BD0000302800200CED00E0D0
:10CFA0000400FA0510B5FEF719F9002814D00B4A51
:10CFB00000210B48FCF710FF08B1FCF785FE08487C
:10CFC00000224FF4A0210068FCF744FF002803D0A2
:10CFD000BDE81040FCF778BE10BD000055BB07004F
:10CFE000B0DA07002DE9F041124D06469046288838
:10CFF0000A46A0F57F41FF3919D0287AC00716D01C
:10D000000D4C60200121207003206070A170E11C94
:10D01000104600F0C7FBC71CE119404600F0C2FBF8
:10D02000C219B1892888BDE8F04100F0FFB8082096
:10D03000BDE8F08168280020182D00202DE9F04778
:10D04000154D0646904628880A46A0F57F41994628
:10D05000FF391ED0287AC0071BD0104C6020062153
:10D06000207061700120A070E11C104600F09AFB56
:10D07000C71CE119404600F095FB0744E1194846FA
:10D0800000F090FBC219B1892888BDE8F04700F094
:10D09000CDB80820BDE8F08768280020182D0020B2
:10D0A0002DE9F041114D07462888A0F57F43FF3B4D
:10D0B0000BD0287AC00708D00D4C602003262070C2
:10D0C0006170A2700B2A03D009E00820BDE8F0814E
:10D0D000FDF77CFCE07004260020FDF77FFCB98999
:10D0E00032462888BDE8F04100F0A0B8682800204A
:10D0F000182D0020084670470846704770B5012675
:10D1000070044FF0E0210025C1F88001084C401068
:10D11000C4F84803C4F8080366602F20FDF7CAFF6F
:10D12000A660044C2F20A560FDF7C4FFA57070BD5C
:10D13000001001408C28002070B50D460446FCF715
:10D1400049FD70B12846FCF757FD68B16807000E2D
:10D15000002C0CDA04F00F0101F1E02181F8140D2C
:10D1600009E042F2010070BD42F2020070BD04F11C
:10D17000E02484F80004002070BD000038B50021D0
:10D18000012558B101280ED003280BD1072100201A
:10D19000FEF7D0FEBDE83840FEF768BE4FF0E02055
:10D1A000C0F8805138BD8DF800106846FCF7A6FE27
:10D1B000064C207808B9FEF735FEE068401CE060B8
:10D1C000A5709DF80000FCF7BDFE38BD08320020B8
:10D1D0003EB5044609496846FFF7CAF808E000BFB3
:10D1E000D0E900212046904730B16846FFF7D7F8D4
:10D1F00002980028F4D13EBD11203EBD2CDC070072
:10D200003EB5044608496846FFF7B2F807E000BF9C
:10D21000D0E90021204690476846FFF7C0F8029801
:10D220000028F5D13EBD000038DC070007B584B00A
:10D2300000220092ADF8001001218DF8021006A91D
:10D2400002910349039101926946A6DF07B000BD30
:10D25000182D002070B516460D46040007D035B1D4
:10D26000206C802200213828225403D307E00E20AE
:10D2700070BD2154401C3828FBD30BE02154401CC6
:10D280004028FBD32146084600F096F83821204676
:10D29000FBF724F9216CD4E912304A0FC900383465
:10D2A00059185041C4E90410227CE2710A0A42EA8A
:10D2B0000062A2710A0C42EA00426271020242EA72
:10D2C000116020716069E070010AA170010C617049
:10D2D000000E04F838092146084600F06DF84FF0BA
:10D2E0000002EEB1E06ED100C840A854A36ECB405E
:10D2F000A8180371636ECB400372236ECB40037397
:10D30000E36DCB400374A36DCB400375636DCB40DD
:10D310000376236DCB40521C0377042AE2D31FE02F
:10D3200018235042216D03EBC000C140A954666D23
:10D33000C640A9180E71A66DC6400E72E66DC640B5
:10D340000E73266EC6400E74666EC6400E75A66ECF
:10D35000C6400E76E66EC640521C0E77042AE0D315
:10D36000002070BDA8B100210164C0E912110A4972
:10D3700001650A4941650A4981650A49C1650A4949
:10D3800001660A4941660A4981660A49C166002068
:10D3900070470E207047000067E6096A85AE67BBDC
:10D3A00072F36E3C3AF54FA57F520E518C68059B87
:10D3B000ABD9831F19CDE05B2DE9F04FC8B0002237
:10D3C00013466F46CC181B1D2568E4782DBA25F04E
:10D3D000FF05254347F82250521C102AF2D31BE0C8
:10D3E00007EB820151F8083C4FEA734484EAF344A6
:10D3F00084EA932451F83C3C4FEAF31585EAB3459F
:10D4000085EAD303234451F81C4C51F8401C2144B5
:10D41000194447F82210521C402AE1D3036D479368
:10D42000416D4691846D4594C26D44929246026E60
:10D430004392456E4295A946856E4195C66E4096CB
:10D44000B34600264FEAB21787EAF22787EA726CE2
:10D4500002EA090725EA020887EA0807BC44204FC8
:10D4600057F8268008EB0B07BC445DF82670AB46E6
:10D470000CEB070E4FEAB30787EA733787EAB35C12
:10D4800081EA04074D4601EA040891461F400AEB71
:10D490000E02A24687EA08070C46BC441946761CD1
:10D4A0000EEB0C03402ECDD3479E33440365469BC1
:10D4B0001944416545992144816544995144C165A8
:10D4C000439911440166429949444166419929446E
:10D4D000816640995944C16648B0BDE8F08F0000AC
:10D4E00018DB07002DE9F04116460F46040004D072
:10D4F00006B317B10025A8461AE00E20BDE8F0815A
:10D50000216C785D6054206C401C206440280ED152
:10D5100021460846FFF750FFD4E912014FF400728C
:10D52000801841F10001C4F84080C4E912016D1C6B
:10D53000B542E5D30020E1E7002801D1FCF7C8BEE1
:10D540007047000010B51620FCF744FB48B10A48AC
:10D5500082684FF4800152B1016821F480010160BA
:10D5600010BDBDE8104042F20100FCF7ADBB4FF02A
:10D57000E020C0F8801110BD2833002010B516201F
:10D58000FCF728FB80B10F4890F800044009FCF735
:10D5900033FB60B10C4882684FF480016AB10168C6
:10D5A00041F48001016010BD42F2010001E042F24D
:10D5B0000200BDE81040FCF787BB4FF0E020C0F848
:10D5C000001110BD16E000E0283300202DE9F84FCF
:10D5D0001D4C00256846D4E901A6FDF749F900274E
:10D5E00038B30023009A61681CE0D1F800C00846F7
:10D5F000944503D9ACEB02020A6015E0A2EB0C02E1
:10D6000063440760D0F80CC0C1698146BCF1000FCB
:10D6100008D006EB030828F07F48C0E9018CC9F860
:10D620001C5005460029E0D128466160FDF7BCFA90
:10D6300003E02846FDF7B8FA10B15046FCF75CFE4F
:10D64000E770BDE8F88F00008C2800200D4B10B566
:10D65000596831B102680C68A24204D8A21A0A6063
:10D66000C161586010BD0B4603E00B46C969121B2F
:10D6700021B10C689442F8D3A41A0C600260C16115
:10D68000D86110BD8C2800202DE9F041144E776838
:10D690003D462C4603E0844204D02546E469002C34
:10D6A000F9D11BE0D4B1A5420BD1F869706040B943
:10D6B0000C49012088600021B160F0702F20FDF737
:10D6C000F9FC2168E069E86110B102681144016069
:10D6D0007068874202D00120BDE8F0810020FBE79E
:10D6E0008C280020001001407CB5064600240D4621
:10D6F0008DF800406846FCF701FC01A800F074F8C2
:10D7000070B10570094946609DF8040048709DF8A5
:10D710000000FCF717FC1420FCF751F820467CBDF4
:10D7200004249DF80000FCF70DFCF7E71C320020F4
:10D730002DE9F041194D6C68002C2CD018480027B9
:10D740000068A968B846401A20F07F462068B042B9
:10D750000CD82146361A0744E469087C20B181F8C8
:10D760001080886949698847002CEFD1297868784A
:10D77000814206D1401CC0B26870022801D185F8F0
:10D780000180064869780C3040F82170BDE8F0410E
:10D790001420FCF714B8BDE8F08100008C280020AC
:10D7A000041501400870020A4A70020C8A70000ECB
:10D7B000C87004207047000010B50248FDF7D1FA88
:10D7C000002010BDA028002010B514210448FAF74D
:10D7D00085FE04480068FDF77DFA002010BD0000BA
:10D7E00030340020E8DA07000A494A788B78521C66
:10D7F000D2B2934200D100220B78934201D1002093
:10D8000070470270487800EB400001EBC000001D3B
:10D81000704700001C320020002070470020704735
:10D820002DE9F84380461C4617460E460C48089DD5
:10D83000FDF79EFA10B11120BDE8F883A208394621
:10D840003046FEF7A7FC0648FDF78BFA2346324622
:10D85000012140460095FDF775F80020ECE7000037
:10D86000A02800202DE9F84F114D884681461E461C
:10D8700017466946DDF828A02868FDF746FA040037
:10D8800013D01C21FAF72AFE00202071C4F8009062
:10D89000C4E90486C4E902A769462868FDF756FA78
:10D8A000FFF710FB0020BDE8F88F0420FBE7000025
:10D8B000E8DA07000000000001010000010000009C
:10D8C0000000000002050000210000000000000030
:10D8D000000000000000000000000000011104FC36
:10D8E0000400000000000000021104FC040000001D
:10D8F00000000000032104FC0410000000000000F0
:10D90000041101FF0100000000000000051102FEEB
:10D910000400000000000000061104FC04000000E8
:10D9200000000000071104FC0400000000000000DB
:10D93000081701FF22000000B8D80700091001FFF6
:10D9400001000000B4D80700000000000000000043
:10D9500000000000010100000400000000000000C1
:10D96000000000000000000000000000011101FFA5
:10D970000100000000000000021702FE94000000F9
:10D98000DCD80700031704FC0400000054D907008A
:10D99000000000000000000000000000010700007F
:10D9A000A00000006CD90700020100000100000087
:10D9B000000000000305000041000000000000001E
:10D9C000000000000000000000000000011704FC3F
:10D9D000A00000006CD90700021704FCE40000005E
:10D9E0009CD90700000000000000000000000000BB
:10D9F000DC90739C037D0FD315A0233AEA60404B63
:10DA0000ABEA2AC0A2CEBBA8DCF88A22A5EB287814
:10DA1000A660E4EBBA7249196E3026FDF65D533408
:10DA200047E34AA41E3F7AE1F6C69D7C6E4BCDFECD
:10DA30000500040500000000642C002011121314DE
:10DA40000D0E0F100200000000000000000000009A
:10DA500000000000000028000000000050EADA305A
:10DA60008883B89F604F15F30000C98E482D0020B1
:10DA700001000000000000000000000000000000A5
:10DA80000200000000000000000000000000000094
:10DA90000300000000000000000000000000000083
:10DAA0000400000000000000000000000000000072
:10DAB000E8310020000000007000000000100000AD
:10DAC0000400000001000000CDAA0700B9D707003C
:10DAD000EDCE070021D80700B1A80700F5D0070058
